:100000000C945D000C9485000C9485000C94850084
:100010000C9485000C9485000C9485000C9485004C
:100020000C9485000C9485000C9485000C9485003C
:100030000C9485000C9485000C9485000C9485002C
:100040000C945A040C9485000C94CA040C94A404D7
:100050000C9485000C9485000C9485000C9485000C
:100060000C9485000C94850000000008000201003B
:100070000003040700000000000000000000000072
:10008000250028002B0000000000240027002A0083
:10009000040404040404040402020202020203032E
:1000A0000303030301020408102040800102040836
:1000B0001020010204081020530711241FBECFEFA7
:1000C000D8E0DEBFCDBF22E0A0E8B1E001C01D92C4
:1000D000AC33B207E1F711E0A0E0B1E0E0E2F4E117
:1000E00002C005900D92A038B107D9F710E0CDE518
:1000F000D0E004C02197FE010E94F307CC35D10760
:10010000C9F70E94FC040C940E0A0C94000090E0C5
:10011000FC01EC55FF4F2491FC01E057FF4F849107
:10012000882399F090E0880F991FFC01EA57FF4F50
:10013000A591B491FC01E458FF4F859194918FB73C
:10014000F894EC91E22BEC938FBF089590E0FC01C2
:10015000E859FF4F3491FC01EC55FF4F2491FC010D
:10016000E057FF4FE491EE2309F43BC0332339F10C
:10017000333091F038F43130A9F0323001F584B5E4
:100180008F7D12C0373091F03830A1F03430B9F49F
:10019000809180008F7D03C0809180008F77809355
:1001A00080000DC084B58F7784BD09C08091B000F8
:1001B0008F7703C08091B0008F7D8093B000F0E016
:1001C000EE0FFF1FE458FF4FA591B4918FB7F8943D
:1001D000EC91611103C020952E2301C02E2B2C938E
:1001E0008FBF08958230910538F0880F991F880FCE
:1001F000991F05970197F1F708952FB7F89460912B
:100200009701709198018091990190919A012FBF67
:1002100008950F931F930E94FD006093A3017093B4
:10022000A4018093A5019093A601E0919B01F09118
:100230009C010284F385E02D8BE991E0099597FFFD
:100240001FC00E94FD000091A3011091A401209104
:10025000A5013091A601DC01CB01801B910BA20B03
:10026000B30B00919F011091A0012091A101309149
:10027000A20180179107A207B307B8F28FEF9FEF93
:100280001F910F9108950F931F930E94FD0060939B
:10029000A3017093A4018093A5019093A601E0911E
:1002A0009B01F0919C010484F585E02D8BE991E0A0
:1002B000099597FF1FC00E94FD000091A3011091B6
:1002C000A4012091A5013091A601DC01CB01801B86
:1002D000910BA20BB30B00919F011091A0012091F3
:1002E000A1013091A20180179107A207B307B8F2CC
:1002F0008FEF9FEF1F910F910895FF920F931F9320
:10030000CF93DF9300D000D0CDB7DEB70E9443017A
:10031000FC0197FD11C08D32910591F0C0970A97AD
:1003200078F0E0919B01F0919C010284F385E02D2F
:100330008BE991E00995EACF60E070E0CB014CC019
:1003400020E030E0A901F12CE130F105F1F0ED32CF
:10035000F105C9F0CF01C0970A97B8F4AAE0B0E060
:100360000E9480078F01FF0F220B330BDC01CB01B2
:10037000800F911FA21FB31F9C01AD0120533109B3
:100380004109510902C0FF24F394E0919B01F091CF
:100390009C010284F385E02D8BE991E029833A8367
:1003A0004B835C8309950E944301FC01C09729811E
:1003B0003A814B815C810A9738F2E130F10521F2F4
:1003C000FF2041F066277727CB01621B730B840B5C
:1003D000950B02C0CA01B9010F900F900F900F90BA
:1003E000DF91CF911F910F91FF900895CF92DF92EF
:1003F000EF92FF920F931F93CF93DF936C017A01DB
:100400008B01C0E0D0E0CE15DF0589F0D8016D91F9
:100410008D01D601ED91FC910190F081E02DC60196
:100420000995892B11F47E0102C02196ECCFC701FA
:10043000DF91CF911F910F91FF90EF90DF90CF90C0
:100440000895089580E090E00895FC01538D448D57
:10045000252F30E0842F90E0821B930B541710F06F
:10046000CF96089501970895FC01918D828D98177C
:1004700061F0828DDF01A80FB11D5D968C91928D88
:100480009F5F9F73928F90E008958FEF9FEF089585
:10049000FC01918D828D981731F0828DE80FF11D4E
:1004A000858D90E008958FEF9FEF0895FC01918D69
:1004B000228D892F90E0805C9F4F821B91098F7362
:1004C000992708958BE991E00E94560221E0892B3B
:1004D00009F420E0822F0895FC01848DDF01A80F2C
:1004E000B11DA35ABF4F2C91848D90E001968F735C
:1004F0009927848FA689B7892C93A089B1898C917B
:1005000080648C93938D848D981306C00288F38940
:10051000E02D80818F7D80830895EF92FF920F936D
:100520001F93CF93DF93EC0181E0888F9B8D8C8D9F
:10053000981305C0E889F989808185FD24C0F62ECD
:100540000B8D10E00F5F1F4F0F731127E02E8C8D66
:10055000E8120CC00FB607FCFACFE889F989808150
:1005600085FFF5CFCE010E946C02F1CF8B8DFE018D
:10057000E80FF11DE35AFF4FF0820B8FEA89FB89E8
:100580008081806207C0EE89FF896083E889F989EC
:1005900080818064808381E090E0DF91CF911F9122
:1005A0000F91FF90EF900895CF93DF93EC01888D2A
:1005B0008823C9F0EA89FB89808185FD05C0A88967
:1005C000B9898C9186FD0FC00FB607FCF5CF8081ED
:1005D00085FFF2CFA889B9898C9185FFEDCFCE0137
:1005E0000E946C02E7CFDF91CF91089580E090E008
:1005F000892B29F00E94620281110C940000089559
:10060000009769F0FC0101900020E9F73197AF01F4
:10061000481B590BBC018BE991E00C94F60180E07A
:1006200090E008958F929F92AF92BF920F931F9385
:10063000CF93DF93CDB7DEB7A1970FB6F894DEBFA7
:100640000FBECDBF19A2423008F44AE08E010F5D03
:100650001F4F842E912CA12CB12CA50194010E9436
:10066000D107E62FB901CA0101501109EA3014F48B
:10067000E05D01C0E95CD801EC93232B242B252BF2
:1006800061F7C8010E940003A1960FB6F894DEBF7F
:100690000FBECDBFDF91CF911F910F91BF90AF9053
:1006A0009F908F9008950C940003CF92DF92EF9269
:1006B000FF92CF93DF936C01990FEE08FF08F7FECE
:1006C0001FC0E0919B01F0919C010190F081E02D11
:1006D0006DE28BE991E00995EC0166277727CB0164
:1006E0006C197D098E099F094AE00E9412038C0F44
:1006F0009D1FDF91CF91FF90EF90DF90CF900895F5
:100700004AE0C701B601DF91CF91FF90EF90DF90F3
:10071000CF900C9412030E94F009FC0124813581D2
:10072000232B31F421E061157105A1F0FB0108C014
:10073000FC01808191816115710531F421E0FC019A
:100740008081882339F005C00E94FE0921E0892BB1
:1007500009F020E0822F08950F931F93CF93DF932A
:10076000EC0188819981009729F02A813B81261725
:10077000370788F48B016F5F7F4F0E94260900972F
:1007800061F0998388831B830A832C813D81232B0D
:1007900011F4FC01108281E001C080E0DF91CF9173
:1007A0001F910F910895EF92FF920F931F93CF9394
:1007B000DF9300D0CDB7DEB78C0169831A82FC01CC
:1007C000E480F580FFEFEF1AFF0AB7010E94AC0347
:1007D000882381F0F8012081318184819581BE01D7
:1007E0006F5F7F4F820F931F0E94070AF801F58207
:1007F000E48281E00F900F90DF91CF911F910F91D4
:10080000FF90EF900895EF92FF920F931F93CF9375
:10081000DF93EC01198218821B821A821D821C82CE
:100820006115710549F18B01FB0101900020E9F789
:1008300031977F01E61AF70AB7010E94AC032881BD
:10084000398181110DC02115310519F0C9010E94AE
:100850008E08198218821D821C821B821A820CC08B
:10086000FD82EC82B801C901DF91CF911F910F91F8
:10087000FF90EF900C94070ADF91CF911F910F9199
:10088000FF90EF900895CF93DF93EC016EE571E058
:100890000E9403040E94090197FD08C08C32910553
:1008A00029F0682FCE010E94D303F4CFCE01DF914F
:1008B000CF9108951F920F920FB60F9211242F938C
:1008C0003F938F939F93AF93BF93809197019091A4
:1008D0009801A0919901B0919A013091960123E07D
:1008E000230F2D3720F40196A11DB11D05C026E868
:1008F000230F0296A11DB11D2093960180939701AD
:1009000090939801A0939901B0939A0180919201DC
:1009100090919301A0919401B09195010196A11D30
:10092000B11D8093920190939301A0939401B09391
:100930009501BF91AF919F918F913F912F910F9012
:100940000FBE0F901F9018951F920F920FB60F9227
:1009500011242F933F934F935F936F937F938F93C4
:100960009F93AF93BF93EF93FF938BE991E00E9426
:100970006C02FF91EF91BF91AF919F918F917F9109
:100980006F915F914F913F912F910F900FBE0F90FC
:100990001F9018951F920F920FB60F9211242F934C
:1009A0008F939F93EF93FF93E091AB01F091AC0194
:1009B0008081E091B101F091B20182FD12C090817D
:1009C0008091B4018F5F8F732091B501821751F030
:1009D000E091B401F0E0E556FE4F958F8093B401AD
:1009E00001C08081FF91EF919F918F912F910F9086
:1009F0000FBE0F901F901895CF93DF93CDB7DEB742
:100A000062970FB6F894DEBF0FBECDBF789484B561
:100A1000826084BD84B5816084BD85B5826085BDFA
:100A200085B5816085BD80916E00816080936E0088
:100A3000109281008091810082608093810080917A
:100A4000810081608093810080918000816080932B
:100A500080008091B10084608093B1008091B000EB
:100A600081608093B00080917A00846080937A00E6
:100A700080917A00826080937A0080917A00816010
:100A800080937A0080917A00806880937A00109237
:100A9000C100E091AB01F091AC0182E08083E09174
:100AA000A701F091A8011082E091A901F091AA019B
:100AB0008FEC80831092B301E091AF01F091B0010F
:100AC00086E08083E091AD01F091AE01808180618C
:100AD0008083E091AD01F091AE01808188608083D8
:100AE000E091AD01F091AE01808180688083E0915A
:100AF000AD01F091AE0180818F7D808385E00E9401
:100B0000870082E00E94870086E00E94870083E0E1
:100B10000E94870087E00E94870084E00E9487008F
:100B200088E00E94870060918F0185E00E94A60006
:100B300060918E0186E00E94A60060918C0187E0A2
:100B40000E94A60060E088E00E94A6008BE991E088
:100B50000E945602892B09F40AC1CE010D960E940B
:100B60004304CE0107960E94430484E291E00E9470
:100B700053034B855C856F8178858BE991E00E94FA
:100B8000F6016BE271E0CE0107960E948D03882387
:100B900069F066E0B62E0EE811E074E0E72E71E031
:100BA000F72EE0E9CE2EE1E0DE2E0CC035E0B32ECC
:100BB0000FE811E048E0E42E41E0F42E51E9C52EA3
:100BC00051E0D52E6DE271E0CE0107960E948D03B3
:100BD000882361F087E0B82E0CE811E090E0E92E60
:100BE00091E0F92E2DE8C22E21E0D22E8FE291E085
:100BF0000E945303F601808190E00E9455038CE32C
:100C000091E00E945303F701608171818281938199
:100C10004AE00E94120387E491E00E945303F80126
:100C2000608170E080E090E04AE00E94120366E597
:100C300071E0CE010D960E948D03882341F00E9441
:100C40007D01F80160838B2D0E94A60022C068E51B
:100C500071E0CE010D960E948D03882341F00E9421
:100C60007D01F701608371838283938312C06AE5FB
:100C700071E0CE010D960E948D03882351F00E94F1
:100C80007D0121E0672B682B692B09F420E0F60138
:100C900020838FE291E00E945303F601808190E06F
:100CA0000E9455038CE391E00E945303F701608199
:100CB0007181828193814AE00E94120387E491E06E
:100CC0000E945303F801608170E080E090E04AE008
:100CD0000E9412038CE591E00E9400038FE591E0F1
:100CE0000E945303609188017091890180918A016B
:100CF00090918B014AE00E94120388E691E00E94E5
:100D000053036091840170918501809186019091D7
:100D100087014AE00E94120384E791E00E94530396
:100D20006091800170918101809182019091830195
:100D30004AE00E9412036EE571E0CE0101960E9426
:100D400003040E94090197FD06C0682FCE01019699
:100D50000E94D303F6CF89819A810E948E088F81E9
:100D600098850E948E088D859E850E948E088091B0
:100D70009101882379F161E082E00E94A6008091D0
:100D80000801909109010E94F20060E082E00E9457
:100D9000A60080910801909109010E94F200209123
:100DA0008F018091880190918901A0918A01B09171
:100DB0008B01211104C00196A11DB11D03C0019733
:100DC000A109B1098093880190938901A0938A01B8
:100DD000B0938B0180919001882379F161E083E0E9
:100DE0000E94A60080910401909105010E94F200EA
:100DF00060E083E00E94A6008091040190910501CB
:100E00000E94F20020918E018091840190918501D1
:100E1000A0918601B0918701213021F40196A11D96
:100E2000B11D03C00197A109B1098093840190937A
:100E30008501A0938601B093870180918D0188235D
:100E400079F161E084E00E94A60080910001909118
:100E500001010E94F20060E084E00E94A6008091FF
:100E60000001909101010E94F20020918C0180917B
:100E7000800190918101A0918201B0918301213084
:100E800021F40196A11DB11D03C00197A109B1096B
:100E90008093800190938101A0938201B09383019C
:100EA0000E94F60253CEEBE9F1E01382128288EE43
:100EB00093E0A0E0B0E084839583A683B78386E1C6
:100EC00091E09183808385EC90E09587848784EC22
:100ED00090E09787868780EC90E0918B808B81EC07
:100EE00090E0938B828B82EC90E0958B848B86ECE8
:100EF00090E0978B868B118E128E138E148E089530
:100F00000E94C207A59F900DB49F900DA49F800DD5
:100F1000911D112408952F923F924F925F926F92EC
:100F20007F928F929F92AF92BF92CF92DF92EF9279
:100F3000FF920F931F93CF93DF93CDB7DEB7CA1BFA
:100F4000DB0B0FB6F894DEBF0FBECDBF09942A8825
:100F5000398848885F846E847D848C849B84AA84CD
:100F6000B984C884DF80EE80FD800C811B81AA815A
:100F7000B981CE0FD11D0FB6F894DEBF0FBECDBF25
:100F8000ED010895A29FB001B39FC001A39F700D12
:100F9000811D1124911DB29F700D811D1124911D81
:100FA0000895A1E21A2EAA1BBB1BFD010DC0AA1FAA
:100FB000BB1FEE1FFF1FA217B307E407F50720F0C2
:100FC000A21BB30BE40BF50B661F771F881F991F3D
:100FD0001A9469F760957095809590959B01AC0186
:100FE000BD01CF010895EE0FFF1F0590F491E02D94
:100FF0000994CF93DF938230910510F482E090E062
:10100000E0913A02F0913B0220E030E0C0E0D0E015
:10101000309711F14081518148175907C0F04817A6
:10102000590761F482819381209719F09B838A8309
:101030002BC090933B0280933A0226C021153105C4
:1010400019F04217530718F49A01BE01DF01EF01AE
:101050000280F381E02DDCCF2115310509F1281B39
:10106000390B2430310590F412968D919C91139791
:101070006115710521F0FB019383828304C0909375
:101080003B0280933A02FD01329644C0FD01E20F1B
:10109000F31F81939193225031092D933C933AC0D1
:1010A0002091380230913902232B41F420910E0116
:1010B00030910F01309339022093380220910C01B6
:1010C00030910D012115310541F42DB73EB7409106
:1010D000100150911101241B350BE0913802F09161
:1010E0003902E217F307A0F42E1B3F0B281739072C
:1010F00078F0AC014E5F5F4F2417350748F04E0F74
:101100005F1F50933902409338028193919302C03C
:10111000E0E0F0E0CF01DF91CF9108950F931F93AE
:10112000CF93DF93009709F48CC0FC0132971382B0
:10113000128200913A0210913B020115110581F4CF
:1011400020813181820F931F209138023091390222
:101150002817390779F5F0933902E093380271C006
:10116000D80140E050E0AE17BF0750F412962D9121
:101170003C911397AD012115310509F1D901F3CF48
:101180009D01DA013383228360817181860F971F6D
:101190008217930769F4EC0128813981260F371FE4
:1011A0002E5F3F4F318320838A819B81938382838B
:1011B000452B29F4F0933B02E0933A0242C0139688
:1011C000FC93EE931297ED01499159919E01240FE2
:1011D000351FE217F30771F480819181840F951F09
:1011E000029611969C938E938281938113969C9381
:1011F0008E931297E0E0F0E0D80112968D919C91C9
:101200001397009719F0F8018C01F6CF8D919C91FE
:1012100098012E5F3F4F820F931F2091380230912B
:1012200039022817390769F4309729F410923B02E4
:1012300010923A0202C01382128210933902009374
:101240003802DF91CF911F910F910895A0E0B0E097
:10125000ECE2F9E00C948F07EC01009721F4CB014C
:101260000E94F907B8C0FC01E60FF71F9C0122504D
:101270003109E217F30708F4ACC0D9010D911C91B4
:10128000119706171707B0F00530110508F49FC035
:10129000C80104978617970708F499C002501109EE
:1012A000061B170B019311936D937C93CF010E9442
:1012B0008E088DC05B01A01AB10A4C01800E911EF0
:1012C000A0913A02B0913B0240E050E0E12CF12CB9
:1012D000109709F44AC0A815B905D1F56D907C9016
:1012E0001197630182E0C80ED11CCA14DB0480F19F
:1012F000A3014A195B096A0182E0C80ED11C12964B
:10130000BC9012971396AC91B5E0CB16D10440F087
:10131000B282A38351834083D9016D937C930AC029
:101320000E5F1F4FC301800F911FF90191838083CE
:10133000EB2DFA2FE114F10431F0D7011396FC9351
:10134000EE93129744C0F0933B02E0933A023FC001
:101350008D919C9111974817590708F4AC017D01B4
:1013600012960D90BC91A02DB3CF80913802909130
:10137000390288159905E1F446175707C8F480919A
:101380000C0190910D01009741F48DB79EB74091EB
:10139000100150911101841B950BE817F907C8F44F
:1013A000F0933902E0933802F901718360830FC032
:1013B000CB010E94F9077C01009759F0A801BE01FA
:1013C0000E94F509CE010E948E08C70104C0CE011B
:1013D00002C080E090E0CDB7DEB7EEE00C94AB0742
:1013E00081E090E0F8940C940E0AFB01DC0102C04D
:1013F00001900D9241505040D8F70895FB01DC0157
:101400008D91019080190110D9F3990B0895FB017A
:10141000DC0101900D920020E1F70895F894FFCFD0
:1014200000C4090000C4090000C4090000003C0217
:101430008000000000008D02F6012502D402560251
:1014400034024802415353453A200079007A002083
:101450002D204156564941544F3A2000202D20441A
:10146000454C41593A2000202D20444952454354CF
:10147000494F4E3A20006400760067000D0A005381
:1014800054455020583A2000202D205354455020D8
:10149000593A2000202D2053544550205A3A20001C
:00000001FF
